:020000040800F2
:1000000000500020B5260008FD260008FD26000847
:10001000FD260008FD260008FD260008000000005F
:100020000000000000000000000000004D0100087A
:10003000FD260008000000005901000865010008C5
:10004000FD260008FD260008FD260008FD26000804
:10005000FD260008FD260008FD260008FD260008F4
:10006000FD260008FD260008FD260008FD260008E4
:10007000FD260008FD260008FD260008FD260008D4
:10008000FD260008FD260008FD260008FD260008C4
:10009000FD260008FD260008FD260008FD260008B4
:1000A000FD260008FD260008FD260008FD260008A4
:1000B000FD260008FD260008FD260008FD26000894
:1000C000FD260008FD260008FD260008FD26000884
:1000D000FD260008FD260008FD260008FD26000874
:1000E000FD260008FD260008FD260008000000008F
:1000F0000000000000000000000000000000000000
:0C01000000000000000000005FF808F1A3
:10010C0010B5054C237833B9044B13B10448AFF345
:10011C0000800123237010BDE000002000000000CF
:10012C004C27000808B5034B1BB103490348AFF338
:10013C00008008BD00000000E40000204C270008EF
:10014C0080B400AF00BFBD4680BC704780B400AF28
:10015C0000BFBD4680BC704780B500AF02F042FACC
:10016C0002F002FA00BF80BD80B582B000AF224A17
:10017C00214B9B6943F0010393611F4B9B6903F077
:10018C0001037B607B68032002F09EF900220021B2
:10019C006FF00B0002F0A4F9002200216FF00A00AE
:1001AC0002F09EF9002200216FF0090002F098F98C
:1001BC00002200216FF0040002F092F900220021CD
:1001CC006FF0030002F08CF9002200216FF00100A7
:1001DC0002F086F9002200214FF0FF3002F080F986
:1001EC00064A064B5B6823F0E06343F000735360F0
:1001FC0000BF0837BD4680BD001002400000014022
:10020C0080B588B000AF78607B681B682C4A93423D
:10021C0026D12C4A2B4B9B6943F480439361294B89
:10022C009B6903F48043FB60FB684FF400733B61F4
:10023C0002237B610323FB6107F11003194622485B
:10024C0001F01EFF4FF480633B6100237B610023B0
:10025C00BB6107F1100319461B4801F011FF2AE09E
:10026C007B681B68194A934225D1164A154BDB69EA
:10027C0043F48023D361134BDB6903F48023BB600D
:10028C00BB684FF480633B6102237B610323FB61FA
:10029C0007F1100319460E4801F0F2FE4FF400630B
:1002AC003B6100237B610023BB6107F110031946FE
:1002BC00074801F0E5FE00BF2037BD4680BD00BFFA
:1002CC000038014000100240000801400048004086
:1002DC00000C014080B485B000AF78607B684FF4AF
:1002EC00967202FB03F3FB6002E0FB68013BFB60D0
:1002FC00FB68002BF9D100BF1437BD4680BC70479A
:10030C0080B500AF084B1B681B6803F02003002B63
:10031C0007D0054B1B685B68DAB2044B1A7000F00F
:10032C008BF800BF80BD00BF78010020B801002011
:10033C0080B483B000AF0023FB710BE0FB79094A5A
:10034C00D35C2C2B03D1FB79064A7921D154FB7950
:10035C000133FB71FB791A2BF0D100BF0C37BD4672
:10036C0080BC70474401002080B500AF2748FFF7E0
:10037C00B1FF01224FF48071254801F0DFFF00220C
:10038C004FF48071224801F0D9FF2048FFF7A2FFFB
:10039C0001224FF480711E4801F0D0FF1D48FFF779
:1003AC0099FF1D4B1B221D491D4800F06DFA1D487D
:1003BC00FFF790FF184B18221B49194800F064FAFC
:1003CC001848FFF787FF144B0E221849144800F009
:1003DC005BFA1448FFF77EFF0F4B0D2214491048AF
:1003EC0000F052FA0F48FFF775FF0B4B132211491F
:1003FC000B4800F049FA0B48FFF76CFF0122402133
:10040C00034801F09BFF00BF80BD00BF801A0600AF
:10041C000010014000350C00405489005C000020A5
:10042C0004010020A0860100780000209400002028
:10043C00A4000020B400002080B500AF4A4B1B780C
:10044C00242B02D1494B01221A70484B1B78042BE8
:10045C0009D1454B1B78472B05D1454B1B780133F4
:10046C00DAB2434B1A70414B1B78052B09D13E4B2A
:10047C001B784C2B05D13E4B1B780133DAB23C4B2D
:10048C001A703A4B1B78062B09D1374B1B784C2B27
:10049C0005D1374B1B780133DAB2354B1A70324B1E
:1004AC001B782A2B38D1324B1B78032B2ED1314B96
:1004BC0078229A722F4B78221A732E4B78221A7646
:1004CC00FFF736FF2C4B56222C492D4800F0DCF957
:1004DC002C4B1B789BB201339AB2274B25492848E9
:1004EC0000F0D2F9244B02222749254800F0CCF920
:1004FC0041F28830FFF7EEFE1F4B112223492048B2
:10050C0000F0C2F94CF25030FFF7E4FE184B002219
:10051C001A70164B00221A70144B1B78002B21D02A
:10052C00124B1B78212B1DD8114B1B78032B13D18D
:10053C000E4B1B78083BDAB2124B1A70114B1B781E
:10054C001A46094B19780B4B9954084B1B780133FD
:10055C00DAB2064B1A7005E0044B1B780133DAB2A1
:10056C00024B1A7000BF80BDB8010020FC000020B7
:10057C00FE000020440100204054890000000020AF
:10058C0004010020FD00002058000020C8000020BD
:10059C0080B500AF01F0F4FF00F00CF800F0AAF801
:1005AC0000F054F800F07CF8FFF7DEFEFFF7A8FE31
:1005BC00FCE700BF80B590B000AF0123BB614FF4E6
:1005CC008033FB6100233B6202237B634FF4803357
:1005DC00BB634FF4E013FB6307F11803184600F0FC
:1005EC00ABFB0346002B01D000F000F90F237B601E
:1005FC000223BB600023FB604FF480633B614FF42C
:10060C00A0637B613B1D0221184601F0B5FA03463D
:10061C00002B01D000F0EAF801F0E4FC02460A4B92
:10062C00A3FB02239B09184601F076FF042001F07E
:10063C007FFF002200214FF0FF3001F051FF00BF7F
:10064C004037BD4680BD00BFD34D621080B500AFB2
:10065C00114B124A1A60104B4FF416525A600E4B43
:10066C0000229A600C4B0022DA600B4B00221A61BC
:10067C00094B0C225A61084B00229A61064B00224E
:10068C00DA61054800F0B6F80346002B01D000F003
:10069C00ADF800BF80BD00BF7801002000380140DC
:1006AC0080B500AF114B124A1A60104B4FF4165222
:1006BC005A600E4B00229A600C4B0022DA600B4BF6
:1006CC0000221A61094B0C225A61084B00229A61D4
:1006DC00064B0022DA61054800F08CF80346002B2B
:1006EC0001D000F083F800BF80BD00BF04010020E2
:1006FC000048004080B588B000AF384A374B9B6942
:10070C0043F010039361354B9B6903F01003FB60BE
:10071C00FB68324A314B9B6943F0200393612F4BAA
:10072C009B6903F02003BB60BB682C4A2B4B9B6975
:10073C0043F004039361294B9B6903F004037B6032
:10074C007B68264A254B9B6943F008039361234B36
:10075C009B6903F008033B603B684FF400533B611B
:10076C001F4B7B610023BB6107F1100319461D4829
:10077C0001F086FC0C233B6102237B610223FB61AD
:10078C0007F110031946184801F07AFC20233B614D
:10079C0001237B610223FB6107F110031946124808
:1007AC0001F06EFC4FF4A0733B6111237B610223BB
:1007BC00FB6107F1100319460A4801F061FC0022A5
:1007CC002021094801F0BAFD00224FF4A071054820
:1007DC0001F0B4FD00BF2037BD4680BD00100240C3
:1007EC0000001210001001400008014080B400AF5E
:1007FC00FEE700BF80B582B000AF78607B68002B4D
:10080C0001D101233BE07B6893F83930DBB2002B3C
:10081C0006D17B68002283F838207868FFF7F0FC5B
:10082C007B68022283F839207B681B687A6812681F
:10083C00D26822F40052DA60786800F067F97B68BD
:10084C001B687A681268126922F490421A617B68FC
:10085C001B687A681268526922F02A025A617B6816
:10086C001B687A681268D26842F40052DA607B68BE
:10087C000022DA637B68012283F8392000231846B2
:10088C000837BD4680BD00BF80B586B000AFF860AC
:10089C00B9603B601346FB8000237B61FB6893F8D7
:1008AC003930DBB27B617B69012B03D07B69222B56
:1008BC0040F08D80BB68002B02D0FB88002B01D14F
:1008CC00012385E0FB6893F83830012B01D102231A
:1008DC007EE0FB68012283F83820FB680022DA6393
:1008EC00FB6893F83930DBB2222B04D1FB6832223F
:1008FC0083F8392003E0FB68122283F83920FB6867
:10090C00FA889A84FB68FA88DA843CE0FB68DB8C12
:10091C00013B9AB2FB68DA84FB689B68B3F5805F95
:10092C001FD13B6800228021F86800F055F803467F
:10093C00002B01D003234BE0BB683B61FB681B68B9
:10094C003A691288C2F308025A60FB681B69002BD3
:10095C0003D1BB680233BB6015E0BB680133BB60DD
:10096C0011E03B6800228021F86800F035F803465E
:10097C00002B01D003232BE0FB681A68BB68591CC1
:10098C00B9601B785360FB68DB8C002BBED13B68D5
:10099C0000224021F86800F01FF80346002B01D01C
:1009AC00032315E0FB6893F83930DBB2322B04D10A
:1009BC00FB68222283F8392003E0FB68012283F8CC
:1009CC003920FB68002283F83820002300E0022342
:1009DC0018461837BD4680BD80B586B000AFF860AC
:1009EC00B9603B601346FB7100237B6101F008FE8C
:1009FC007861FB79002B7BD138E03B68B3F1FF3F8A
:100A0C0034D03B68002B07D001F0FAFD02467B691D
:100A1C00D21A3B689A4229D9FB681B68FA6812689B
:100A2C00D26822F08002DA60FB681B68FA681268F0
:100A3C00D26822F02002DA60FB681B68FA68126840
:100A4C00D26822F48072DA60FB681B68FA6812685C
:100A5C00526922F001025A61FB68012283F83920A5
:100A6C00FB68002283F8382003234AE0FB681B68EC
:100A7C001A68BB681A40BB689A42BED140E03B681A
:100A8C00B3F1FF3F34D03B68002B07D001F0B8FD29
:100A9C0002467B69D21A3B689A4229D9FB681B68CB
:100AAC00FA681268D26822F08002DA60FB681B6870
:100ABC00FA681268D26822F02002DA60FB681B68C0
:100ACC00FA681268D26822F48072DA60FB681B68DC
:100ADC00FA681268526922F001025A61FB6801221D
:100AEC0083F83920FB68002283F83820032308E0C0
:100AFC00FB681B681A68BB681A40BB689A42BED078
:100B0C00002318461837BD4680BD00BFF0B585B030
:100B1C0000AF78600023FB607B681B687A68126802
:100B2C00126922F440517A68D2680A431A617B68D0
:100B3C009A687B681B691A437B685B691343FB608B
:100B4C007B681A687B681B68DB6823F4B05323F05E
:100B5C000C03F9680B43D3607B681B687A681268D6
:100B6C00526922F440717A6892690A435A617B682F
:100B7C001B686F4A93426BD17B681C6801F05EFA6C
:100B8C00024613469B0013449A001A447B685B6828
:100B9C009B00B2FBF3F3674AA2FB03235B091D0125
:100BAC0001F04CFA024613469B0013449A001A4477
:100BBC007B685B689B00B2FBF3F601F03FFA0246E0
:100BCC0013469B0013449A001A447B685B689B0095
:100BDC00B2FBF3F3574AA2FB03235B09642202FB2B
:100BEC0003F3F31A1B013233524AA2FB03235B09B2
:100BFC0003F0F0031D4401F021FA024613469B005A
:100C0C0013449A001A447B685B689B00B2FBF3F6B2
:100C1C0001F014FA024613469B0013449A001A443E
:100C2C007B685B689B00B2FBF3F3424AA2FB032395
:100C3C005B09642202FB03F3F31A1B0132333D4AB6
:100C4C00A2FB03235B0903F00F032B44A3606AE0B0
:100C5C007B681C6801F0D0F9024613469B001344D4
:100C6C009A001A447B685B689B00B2FBF3F3314A31
:100C7C00A2FB03235B091D0101F0BEF902461346DA
:100C8C009B0013449A001A447B685B689B00B2FB80
:100C9C00F3F601F0B1F9024613469B0013449A0097
:100CAC001A447B685B689B00B2FBF3F3214AA2FBFE
:100CBC0003235B09642202FB03F3F31A1B01323397
:100CCC001C4AA2FB03235B0903F0F0031D4401F053
:100CDC0093F9024613469B0013449A001A447B680E
:100CEC005B689B00B2FBF3F601F086F902461346F3
:100CFC009B0013449A001A447B685B689B00B2FB10
:100D0C00F3F30C4AA2FB03235B09642202FB03F3FB
:100D1C00F31A1B013233074AA2FB03235B0903F0CE
:100D2C000F032B44A36000BF1437BD46F0BD00BFBA
:100D3C00003801401F85EB5190B5E5B000AF3B1D6D
:100D4C0018600023C7F88C313B1D1B681B6803F02F
:100D5C000103002B00F07581B84B5B6803F00C03AA
:100D6C00042B0BD0B54B5B6803F00C03082B5FD145
:100D7C00B24B5B6803F48033002B59D04FF4003333
:100D8C00C7F8CC30D7F8CC3093FAA3F3C7F8C830F7
:100D9C00D7F8C830B3FA83F35BB243F020035BB2ED
:100DAC00DBB25B09DBB2012B02D1A44B1B681BE04D
:100DBC004FF40033C7F87031D7F8703193FAA3F3BE
:100DCC00C7F8C430D7F8C430B3FA83F35BB243F03E
:100DDC0020035BB2DBB25B09DBB2022B02D1974B77
:100DEC001B6A01E0954B5B6A4FF40032C7F86C212B
:100DFC00D7F86C2192FAA2F2C7F8C020D7F8C0201D
:100E0C00B2FA82F252B242F0200252B2D2B202F0E4
:100E1C001F02D34003F00103002B00F011813B1D96
:100E2C001B685B68002B40F00B81012300F09DBE1A
:100E3C003B1D1B685B68B3F5803F06D17F4A7F4B37
:100E4C001B6843F48033136030E03B1D1B685B6808
:100E5C00002B0CD1794A794B1B6823F48033136037
:100E6C00764A764B1B6823F4802313601EE03B1DEF
:100E7C001B685B68B3F5A02F0CD1704A6F4B1B68D5
:100E8C0043F4802313606D4A6C4B1B6843F480332E
:100E9C0013600BE0694A694B1B6823F480331360C1
:100EAC00664A664B1B6823F4802313603B1D1B684A
:100EBC005B68002B60D001F0A3FBC7F88C010AE043
:100ECC0001F09EFB0246D7F88C31D31A642B02D961
:100EDC00032300F04ABE4FF40033C7F86831D7F84B
:100EEC00683193FAA3F3C7F8BC30D7F8BC30B3FA27
:100EFC0083F35BB243F020035BB2DBB25B09DBB282
:100F0C00012B02D14D4B1B681BE04FF40033C7F88B
:100F1C008831D7F8883193FAA3F3C7F8B830D7F8EB
:100F2C00B830B3FA83F35BB243F020035BB2DBB2AD
:100F3C005B09DBB2022B02D1404B1B6A01E03F4B39
:100F4C005B6A4FF40032C7F88421D7F8842192FAF7
:100F5C00A2F2C7F8B420D7F8B420B2FA82F252B297
:100F6C0042F0200252B2D2B202F01F02D34003F080
:100F7C000103002BA4D064E001F042FBC7F88C0104
:100F8C000AE001F03DFB0246D7F88C31D31A642BF2
:100F9C0002D9032300F0E9BD4FF40033C7F88031C8
:100FAC00D7F8803193FAA3F3C7F8B030D7F8B03044
:100FBC00B3FA83F35BB243F020035BB2DBB25B09A1
:100FCC00DBB2012B02D11D4B1B681BE04FF400332D
:100FDC00C7F87C31D7F87C3193FAA3F3C7F8AC305F
:100FEC00D7F8AC30B3FA83F35BB243F020035BB2B7
:100FFC00DBB25B09DBB2022B02D1104B1B6A01E0A6
:10100C000E4B5B6A4FF40032C7F87821D7F8782181
:10101C0092FAA2F2C7F8A820D7F8A820B2FA82F266
:10102C0052B242F0200252B2D2B202F01F02D340AE
:10103C0003F00103002BA4D103E000BF0010024019
:10104C0000BF3B1D1B681B6803F00203002B00F064
:10105C009881BC4B5B6803F00C03002B0BD0B94B95
:10106C005B6803F00C03082B74D1B64B5B6803F47C
:10107C008033002B6ED10223C7F87431D7F874314A
:10108C0093FAA3F3C7F8A430D7F8A430B3FA83F3D8
:10109C005BB243F020035BB2DBB25B09DBB2012B2A
:1010AC0002D1A84B1B681AE00223C7F84031D7F8CD
:1010BC00403193FAA3F3C7F8A030D7F8A030B3FAB5
:1010CC0083F35BB243F020035BB2DBB25B09DBB2B0
:1010DC00022B02D19B4B1B6A01E09A4B5B6A0222EA
:1010EC00C7F83C21D7F83C2192FAA2F2C7F89C2011
:1010FC00D7F89C20B2FA82F252B242F0200252B2DD
:10110C00D2B202F01F02D34003F00103002B07D030
:10111C003B1D1B681B69012B02D0012300F025BD70
:10112C008848884B1B6823F0F8023B1D1B685969E3
:10113C00F823C7F83831D7F8383193FAA3F3C7F846
:10114C009830D7F89830B3FA83F301FA03F31343CA
:10115C00036016E13B1D1B681B69002B00F094809B
:10116C000123C7F83431D7F8343193FAA3F3C7F815
:10117C009430D7F89430B3FA83F39B0003F1844393
:10118C0003F584031A460123136001F039FAC7F8FA
:10119C008C010AE001F034FA0246D7F88C31D31AEC
:1011AC00022B02D9032300F0E0BC0223C7F8643100
:1011BC00D7F8643193FAA3F207F190031A6007F1A0
:1011CC0090031B68B3FA83F35BB243F020035BB26A
:1011DC00DBB25B09DBB2012B02D15A4B1B681CE062
:1011EC000223C7F86031D7F8603193FAA3F207F104
:1011FC008C031A6007F18C031B68B3FA83F35BB2A0
:10120C0043F020035BB2DBB25B09DBB2022B02D1F1
:10121C004C4B1B6A01E04B4B5B6A0222C7F85C210A
:10122C00D7F85C2192FAA2F107F18802116007F15C
:10123C0088021268B2FA82F252B242F0200252B222
:10124C00D2B202F01F02D34003F00103002BA1D055
:10125C003C4C3C4B1B6823F0F8023B1D1B68596946
:10126C00F823C7F85831D7F8583193FAA3F007F19F
:10127C008403186007F184031B68B3FA83F301FA43
:10128C0003F3134323607CE00123C7F85431D7F8F0
:10129C00543193FAA3F207F180031A6007F180032B
:1012AC001B68B3FA83F39B0003F1844303F58403B7
:1012BC001A460023136001F0A3F9C7F88C010AE069
:1012CC0001F09EF90246D7F88C31D31A022B02D9C1
:1012DC00032300F04ABC0223C7F85031D7F8503131
:1012EC0093FAA3F207F17C031A6007F17C031B68E5
:1012FC00B3FA83F35BB243F020035BB2DBB25B095E
:10130C00DBB2012B02D10F4B1B681FE00223C7F885
:10131C004C31D7F84C3193FAA3F207F178031A60E9
:10132C0007F178031B68B3FA83F35BB243F0200335
:10133C005BB2DBB25B09DBB2022B05D1014B1B6A42
:10134C0004E000BF00100240B74B5B6A0222C7F8F2
:10135C004821D7F8482192FAA2F107F174021160E2
:10136C0007F174021268B2FA82F252B242F0200211
:10137C0052B2D2B202F01F02D34003F00103002B91
:10138C009ED13B1D1B681B6803F00803002B00F06B
:10139C00F9803B1D1B689B69002B7BD00123C7F890
:1013AC004431D7F8443193FAA3F207F170031A6071
:1013BC0007F170031B68B3FA83F39B001A469B4B2F
:1013CC0013441A460123136001F01AF9C7F88C0173
:1013DC0009E001F015F90246D7F88C31D31A022B2B
:1013EC0001D90323C1E30223C7F83031D7F83031D8
:1013FC0093FAA3F207F16C031A6007F16C031B68F4
:10140C00B3FA83F35BB243F060035BB2DBB25B090C
:10141C00DBB2012B02D1844B1B681CE00223C7F802
:10142C002C31D7F82C3193FAA3F207F168031A6028
:10143C0007F168031B68B3FA83F35BB243F06003F4
:10144C005BB2DBB25B09DBB2022B02D1764B1B6ABF
:10145C0001E0754B5B6A0222C7F82821D7F82821D6
:10146C0092FAA2F107F16402116007F164021268AA
:10147C00B2FA82F252B242F0600252B2D2B202F02E
:10148C001F02D34003F00103002BA2D0012001F076
:10149C00C1F877E00123C7F82431D7F8243193FA47
:1014AC00A3F207F160031A6007F160031B68B3FA3B
:1014BC0083F39B001A465D4B13441A4600231360BA
:1014CC0001F09EF8C7F88C0109E001F099F802468A
:1014DC00D7F88C31D31A022B01D9032345E302230D
:1014EC00C7F82031D7F8203193FAA3F207F15C0347
:1014FC001A6007F15C031B68B3FA83F35BB243F029
:10150C0060035BB2DBB25B09DBB2012B02D1464B51
:10151C001B681CE00223C7F81C31D7F81C3193FA66
:10152C00A3F207F158031A6007F158031B68B3FACA
:10153C0083F35BB243F060035BB2DBB25B09DBB2FB
:10154C00022B02D1384B1B6A01E0374B5B6A02223B
:10155C00C7F81821D7F8182192FAA2F107F1540212
:10156C00116007F154021268B2FA82F252B242F0E0
:10157C00600252B2D2B202F01F02D34003F0010358
:10158C00002BA2D13B1D1B681B6803F00403002B2E
:10159C0000F03C81244A244BDB6943F08053D36137
:1015AC00214BDB6903F0805207F108031A6007F145
:1015BC0008031B681E4A1E4B1B6843F480731360A0
:1015CC0001F01EF8C7F88C0109E001F019F8024689
:1015DC00D7F88C31D31A642B01D90323C5E2144BF1
:1015EC001B6803F48073002BEFD03B1D1B68DB687A
:1015FC00012B06D10C4A0C4B1B6A43F001031362FE
:10160C0036E03B1D1B68DB68002B13D1064A064BEA
:10161C001B6A23F001031362034A034B1B6A23F07A
:10162C000403136224E000BF001002408004424215
:10163C00007000403B1D1B68DB68052B0CD1AC4ACD
:10164C00AB4B1B6A43F004031362A94AA84B1B6AF9
:10165C0043F0010313620BE0A54AA54B1B6A23F070
:10166C0001031362A24AA24B1B6A23F00403136208
:10167C003B1D1B68DB68002B64D000F0C1FFC7F872
:10168C008C010BE000F0BCFF0246D7F88C31D31A6A
:10169C0041F28832934201D9032366E20223C7F850
:1016AC001431D7F8143193FAA3F207F150031A60EE
:1016BC0007F150031B68B3FA83F35BB243F04003AA
:1016CC005BB2DBB25B09DBB2012B02D1884B1B682E
:1016DC001CE00223C7F81031D7F8103193FAA3F2AB
:1016EC0007F14C031A6007F14C031B68B3FA83F340
:1016FC005BB243F040035BB2DBB25B09DBB2022BA3
:10170C0002D17B4B1B6A01E0794B5B6A0222C7F862
:10171C000C21D7F80C2192FAA2F107F148021160C2
:10172C0007F148021268B2FA82F252B242F0400259
:10173C0052B2D2B202F01F02D34003F00103002BCD
:10174C00A0D063E000F05CFFC7F88C010BE000F068
:10175C0057FF0246D7F88C31D31A41F288329342A4
:10176C0001D9032301E20223C7F80831D7F8083165
:10177C0093FAA3F207F144031A6007F144031B68C0
:10178C00B3FA83F35BB243F040035BB2DBB25B09A9
:10179C00DBB2012B02D1564B1B681CE00223C7F8AD
:1017AC000431D7F8043193FAA3F207F140031A601D
:1017BC0007F140031B68B3FA83F35BB243F04003B9
:1017CC005BB2DBB25B09DBB2022B02D1484B1B6A6A
:1017DC0001E0474B5B6A0222C7F80021D7F80021D1
:1017EC0092FAA2F107F13C02116007F13C02126877
:1017FC00B2FA82F252B242F0400252B2D2B202F0CB
:10180C001F02D34003F00103002BA0D13B1D1B682A
:10181C00DB69002B00F0A881354B5B6803F00C03EF
:10182C00082B00F09F813B1D1B68DB69022B40F0ED
:10183C001B814FF08073C7F8FC30D7F8FC3093FA5B
:10184C00A3F207F138031A6007F138031B68B3FAE7
:10185C0083F39B0003F1844303F584031A460023AE
:10186C00136000F0CDFEC7F88C0109E000F0C8FE53
:10187C000246D7F88C31D31A022B01D9032374E119
:10188C004FF00073C7F8F830D7F8F83093FAA3F29A
:10189C0007F134031A6007F134031B68B3FA83F3BE
:1018AC005BB243F020035BB2DBB25B09DBB2012B12
:1018BC0002D10F4B1B681FE04FF00073C7F8F430D8
:1018CC00D7F8F43093FAA3F207F130031A6007F15A
:1018DC0030031B68B3FA83F35BB243F020035BB2B3
:1018EC00DBB25B09DBB2022B04D1014B1B6A03E0B8
:1018FC00001002409F4B5B6A4FF00072C7F8F0205B
:10190C00D7F8F02092FAA2F107F12C02116007F13E
:10191C002C021268B2FA82F252B242F0200252B297
:10192C00D2B202F01F02D34003F00103002B9DD171
:10193C003B1D1B681B6AB3F5803F09D18D498D4B4C
:10194C005B6823F400323B1D1B689B6813434B60A0
:10195C008848884B5B6823F474123B1D1B68196A1A
:10196C003B1D1B685B6A0B43134343604FF0807352
:10197C00C7F8EC30D7F8EC3093FAA3F207F1280350
:10198C001A6007F128031B68B3FA83F39B0003F179
:10199C00844303F584031A460123136000F030FEE0
:1019AC00C7F88C0109E000F02BFE0246D7F88C3109
:1019BC00D31A022B01D90323D7E04FF00073C7F8D9
:1019CC00E830D7F8E83093FAA3F207F124031A6051
:1019DC0007F124031B68B3FA83F35BB243F02003D3
:1019EC005BB2DBB25B09DBB2012B02D1614B1B6832
:1019FC001DE04FF00073C7F8E430D7F8E43093FAE9
:101A0C00A3F207F120031A6007F120031B68B3FA55
:101A1C0083F35BB243F020035BB2DBB25B09DBB256
:101A2C00022B02D1534B1B6A01E0524B5B6A4FF005
:101A3C000072C7F8E020D7F8E02092FAA2F107F183
:101A4C001C02116007F11C021268B2FA82F252B247
:101A5C0042F0200252B2D2B202F01F02D34003F085
:101A6C000103002B9FD07FE04FF08073C7F8DC3070
:101A7C00D7F8DC3093FAA3F207F118031A6007F1D8
:101A8C0018031B68B3FA83F39B0003F1844303F53B
:101A9C0084031A460023136000F0B2FDC7F88C01D2
:101AAC0009E000F0ADFD0246D7F88C31D31A022BB9
:101ABC0001D9032359E04FF00073C7F8D830D7F899
:101ACC00D83093FAA3F207F114031A6007F1140348
:101ADC001B68B3FA83F35BB243F020035BB2DBB257
:101AEC005B09DBB2012B02D1224B1B681DE04FF0CE
:101AFC000073C7F8D430D7F8D43093FAA3F207F1B7
:101B0C0010031A6007F110031B68B3FA83F35BB27E
:101B1C0043F020035BB2DBB25B09DBB2022B02D1D8
:101B2C00144B1B6A01E0134B5B6A4FF00072C7F851
:101B3C00D020D7F8D02092FAA2F107F10C02116054
:101B4C0007F10C021268B2FA82F252B242F0200291
:101B5C0052B2D2B202F01F02D34003F00103002BA9
:101B6C009FD101E0012300E00023184607F5CA7756
:101B7C00BD4690BD0010024080B598B000AF7860B3
:101B8C0039600023FB65A54B1B6803F007023B681B
:101B9C009A4210D2A149A14B1B6823F007023B6863
:101BAC0013430B609D4B1B6803F007023B689A4282
:101BBC0001D001238FE17B681B6803F00203002B2B
:101BCC0008D09749964B5B6823F0F0027B689B68C2
:101BDC0013434B607B681B6803F00103002B00F080
:101BEC0027817B685B68012B46D14FF400337B6304
:101BFC007B6B93FAA3F33B633B6BB3FA83F35BB25C
:101C0C0043F020035BB2DBB25B09DBB2012B02D1E8
:101C1C00834B1B6817E04FF40033BB65BB6D93FA25
:101C2C00A3F3FB62FB6AB3FA83F35BB243F02003CA
:101C3C005BB2DBB25B09DBB2022B02D1784B1B6AC5
:101C4C0001E0774B5B6A4FF400327A657A6D92FA59
:101C5C00A2F2BA62BA6AB2FA82F252B242F020022C
:101C6C0052B2D2B202F01F02D34003F00103002B98
:101C7C0040F08F8001232EE17B685B68022B45D1FD
:101C8C004FF000733B653B6D93FAA3F37B627B6A69
:101C9C00B3FA83F35BB243F020035BB2DBB25B09B4
:101CAC00DBB2012B02D15E4B1B6817E04FF00073C7
:101CBC00FB64FB6C93FAA3F33B623B6AB3FA83F3CA
:101CCC005BB243F020035BB2DBB25B09DBB2022BED
:101CDC0002D1534B1B6A01E0514B5B6A4FF000720F
:101CEC00BA64BA6C92FAA2F2FA61FA69B2FA82F2A6
:101CFC0052B242F0200252B2D2B202F01F02D340D2
:101D0C0003F00103002B44D10123E4E002237B64A4
:101D1C007B6C93FAA3F3BB61BB69B3FA83F35BB23D
:101D2C0043F020035BB2DBB25B09DBB2012B02D1C7
:101D3C003B4B1B6816E002233B643B6C93FAA3F30A
:101D4C007B617B69B3FA83F35BB243F020035BB234
:101D5C00DBB25B09DBB2022B02D1314B1B6A01E017
:101D6C002F4B5B6A0222FA63FA6B92FAA2F23A6187
:101D7C003A69B2FA82F252B242F0200252B2D2B2B4
:101D8C0002F01F02D34003F00103002B01D1012309
:101D9C00A1E02349224B5B6823F003027B685B685C
:101DAC0013434B6000F02CFCF8657B685B68012BDF
:101DBC0012D10AE000F024FC0246FB6DD31A41F26A
:101DCC008832934201D9032385E0154B5B6803F0FD
:101DDC000C03042BEED12BE07B685B68022B21D12A
:101DEC000AE000F00DFC0246FB6DD31A41F288327A
:101DFC00934201D903236EE0094B5B6803F00C039B
:101E0C00082BEED114E000F0FBFB0246FB6DD31A5D
:101E1C0041F28832934205D903235CE00020024052
:101E2C00001002402E4B5B6803F00C03002BEAD130
:101E3C002C4B1B6803F007023B689A4210D92949C6
:101E4C00284B1B6823F007023B6813430B60254BA0
:101E5C001B6803F007023B689A4201D001233AE069
:101E6C007B681B6803F00403002B08D01C491C4B37
:101E7C005B6823F4E0627B68DB6813434B607B6830
:101E8C001B6803F00803002B09D01549144B5B6841
:101E9C0023F460527B681B69DB0013434B6000F03A
:101EAC0027F801460E4B5B6803F0F002F023BB638E
:101EBC00BB6B93FAA3F3FB60FB68B3FA83F322FAD0
:101ECC0003F3094AD35C21FA03F3084A1360002098
:101EDC0000F06CFB002318466037BD4680BD00BF88
:101EEC00001002400020024078270008DC0000208F
:101EFC0090B48EB000AF364B3C1D186859689A6888
:101F0C00DB680FC4334A3B4612881A800023FB62FD
:101F1C000023BB6200237B6300237B6200233B63B3
:101F2C002D4B5B68FB62FB6A03F00C03042B02D0A5
:101F3C00082B03D043E0294B3B6343E0FB6A03F4DB
:101F4C0070124FF47013FB61FB6993FAA3F3BB613E
:101F5C00BB69B3FA83F322FA03F307F13802134493
:101F6C0013F8343C7B62FB6A03F48033002B1ED0E5
:101F7C00194B5B6803F400324FF400333B623B6A4D
:101F8C0093FAA3F37B617B69B3FA83F322FA03F32D
:101F9C0007F13802134413F8383CBB620F4ABB6A92
:101FAC00B2FBF3F37A6A02FB03F37B6304E07B6A14
:101FBC000B4A02FB03F37B637B6B3B6302E0074B37
:101FCC003B6300BF3B6B18463837BD4690BC70472F
:101FDC0064270008742700080010024000127A00E1
:101FEC0000093D0080B400AF024B1B681846BD468B
:101FFC0080BC7047DC00002080B582B000AFFFF7DA
:10200C00F1FF01460B4B5B6803F4E0624FF4E063B5
:10201C007B607B6893FAA3F33B603B68B3FA83F372
:10202C0022FA03F3044AD35C21FA03F31846083767
:10203C00BD4680BD001002408827000880B582B0E4
:10204C0000AFFFF7CFFF01460B4B5B6803F4605208
:10205C004FF460537B607B6893FAA3F33B603B685F
:10206C00B3FA83F322FA03F3044AD35C21FA03F3A1
:10207C0018460837BD4680BD00100240882700086E
:10208C0080B48BB000AF786039600023FB61002313
:10209C00BB6100237B6100233B6200233B61002377
:1020AC007B6227E101227B6A02FA03F3FB613B6846
:1020BC001A68FB691340BB61BA69FB699A4240F02C
:1020CC0016813B685B68122B34D0122B0DD8022B77
:1020DC002BD0022B04D8002B31D0012B1CD048E084
:1020EC00032B43D0112B1BD043E0874A934226D0BD
:1020FC00854A934206D8854A934220D0844A93421B
:10210C001DD036E0834A934219D0834A934216D0AD
:10211C00824A934213D02CE03B68DB683B6228E098
:10212C003B68DB6804333B6223E03B68DB680833C5
:10213C003B621EE03B68DB680C333B6219E03B689A
:10214C009B68002B02D104233B6212E03B689B6826
:10215C00012B05D108233B627B68FA691A6108E000
:10216C0008233B627B68FA695A6102E000233B62F8
:10217C0000BFBB69FF2B01D87B6801E07B6804338F
:10218C00FB60BB69FF2B02D87B6A9B0002E07B6A79
:10219C00083B9B003B61FB681A680F213B6901FA05
:1021AC0003F3DB431A40396A3B6901FA03F31A4320
:1021BC00FB681A603B685B6803F08053002B00F0EF
:1021CC009680574A564B9B6943F001039361544BDD
:1021DC009B6903F00103BB60BB68524A7B6A9B0896
:1021EC00023352F823307B617B6A03F003039B00BC
:1021FC000F2202FA03F3DB437A6913407B617B689D
:10220C00494A934213D07B68484A93420DD07B686D
:10221C00474A934207D07B68464A934201D1032335
:10222C0006E0042304E0022302E0012300E0002383
:10223C007A6A02F00302920093407A6913437B613D
:10224C0038497B6A9B0802337A6941F823203B6842
:10225C005B6803F48033002B06D03749364B1A6881
:10226C00BB6913430B6006E03349334B1A68BB69F7
:10227C00DB4313400B603B685B6803F40033002BBB
:10228C0006D02D492C4B5A68BB6913434B6006E0B2
:10229C002949294B5A68BB69DB4313404B603B68A7
:1022AC005B6803F48013002B06D02349224B9A68F9
:1022BC00BB6913438B6006E01F491F4B9A68BB69CF
:1022CC00DB4313408B603B685B6803F40013002B0B
:1022DC0006D01949184BDA68BB691343CB6006E08A
:1022EC001549154BDA68BB69DB431340CB607B6A3D
:1022FC0001337B627B6A0F2B7FF6D4AE00BF2C3789
:10230C00BD4680BC704700BF0000211000001110BA
:10231C0000001210000031100000321000002210DA
:10232C00001002400000014000080140000C014078
:10233C0000100140001401400004014080B483B03F
:10234C0000AF78600B467B8013467B707B78002B4C
:10235C0003D07A887B681A6103E07B881A047B6857
:10236C001A6100BF0C37BD4680BC704780B485B085
:10237C0000AF78607B6803F00703FB600C4BDB68F5
:10238C00BB60BA684FF6FF031340BB60FB681A02D0
:10239C00BB68134343F0BF6343F40033BB60044A90
:1023AC00BB68D36000BF1437BD4680BC704700BF0C
:1023BC0000ED00E080B400AF044BDB6803F4E06395
:1023CC001B0A1846BD4680BC704700BF00ED00E0FC
:1023DC0080B483B000AF03463960FB7197F90730C6
:1023EC00002B0BDA0D49FB7903F00F03043B3A6821
:1023FC00D2B21201D2B20B441A7609E0084997F90D
:10240C0007303A68D2B21201D2B20B4483F80023DF
:10241C0000BF0C37BD4680BC704700BF00ED00E02C
:10242C0000E100E080B489B000AFF860B9607A6078
:10243C00FB6803F00703FB61FB69C3F10703042B83
:10244C0028BF0423BB61FB690433062B02D9FB694B
:10245C00033B00E000237B610122BB6902FA03F31A
:10246C005A1EBB681A407B699A4001217B6901FAAC
:10247C0003F3591E7B680B40134318462437BD46A3
:10248C0080BC704780B582B000AF78607B68013B40
:10249C00B3F1807F01D301230FE00A4A7B68013B33
:1024AC0053600F214FF0FF30FFF792FF054B0022D6
:1024BC009A60044B07221A60002318460837BD4661
:1024CC0080BD00BF10E000E080B582B000AF786046
:1024DC007868FFF74BFF00BF0837BD4680BD00BFD3
:1024EC0080B586B000AF0346B9607A60FB730023F9
:1024FC007B61FFF75FFF78617A68B9687869FFF7ED
:10250C0091FF024697F90F3011461846FFF760FF0E
:10251C0000BF1837BD4680BD80B582B000AF786073
:10252C007868FFF7AFFF034618460837BD4680BDF5
:10253C0080B483B000AF78607B68042B06D1094A65
:10254C00084B1B6843F00403136005E0054A054B78
:10255C001B6823F00403136000BF0C37BD4680BC1E
:10256C00704700BF10E000E080B500AF00F002F84B
:10257C0000BF80BD80B400AF00BFBD4680BC7047BB
:10258C0080B500AF084A084B1B6843F0100313607A
:10259C000320FFF799FF002000F008F8FDF7E4FD99
:1025AC000023184680BD00BF0020024080B582B0D9
:1025BC0000AF7860FFF716FD0246094BA3FB022320
:1025CC009B091846FFF7A8FF002279684FF0FF30EF
:1025DC00FFF786FF002318460837BD4680BD00BFB5
:1025EC00D34D621080B400AF044B1B680133034A17
:1025FC00136000BFBD4680BC704700BF00010020C7
:10260C0080B400AF024B1B681846BD4680BC7047B7
:10261C000001002080B584B000AF78600023FB601F
:10262C00FFF7EEFFF86000BFFFF7EAFF0246FB681A
:10263C00D21A7B689A42F7D300BF1037BD4680BDD3
:10264C0080B400AF154A154B1B6843F001031360AF
:10265C001249124B5A68124B13404B600F4A0F4BE6
:10266C001B6823F0847323F4803313600B4A0B4BE9
:10267C001B6823F480231360084A084B5B6823F41F
:10268C00FE035360054B4FF41F029A60054B4FF04D
:10269C0000629A6000BFBD4680BC704700100240CB
:1026AC000000FFF800ED00E0002103E00B4B5B584D
:1026BC00435004310A480B4B42189A42F6D30A4A4B
:1026CC0002E0002342F8043B084B9A42F9D3FFF78F
:1026DC00B7FF00F00FF8FDF75BFF70479827000875
:1026EC0000000020E0000020E0000020BC010020E1
:1026FC00FEE700000E4B70B51E460E4C0025E41A8A
:10270C00A410A54204D056F8253098470135F8E7B7
:10271C0000F016F8084B094C1E46E41AA4100025CC
:10272C00A54204D056F8253098470135F8E770BD1E
:10273C00902700089027000890270008942700088D
:10274C00F8B500BFF8BC08BC9E467047F8B500BF92
:08275C00F8BC08BC9E46704762
:1027640002030405060708090A0B0C0D0E0F1010CE
:102774000102000000000000000000000102030448
:0C27840006070809000000000102030421
:04279000310100080B
:042794000D0100082B
:1027980041542B48545450504152413D55524C2CB1
:1027A800687474703A2F2F7777772E74616D626F23
:1027B80076736B6979766F6C6B32362E74657374C9
:1027C8002E686F73742D76726E2E72752F6765740E
:1027D8005F6C6F636174696F6E2E7068703F7261B1
:1027E800775F7661723D00000D0A000041542B535B
:1027F800415042523D332C312C436F6E74797065D1
:102808002C475052530D0A0041542B534150425209
:102818003D332C312C41504E2C33672E67650D0A01
:102828000000000041542B53415042523D312C319D
:102838000D0A000041542B48545450494E49540D38
:102848000A00000041542B48545450504152413D15
:102858004349442C310D0A0041542B4854545041EB
:102868004354494F4E3D300D0A00000000A24A046F
:04000005080026B514
:00000001FF
